{
  "contractName": "Flip",
  "abi": [
    {
      "inputs": [],
      "payable": false,
      "stateMutability": "nonpayable",
      "type": "constructor"
    },
    {
      "anonymous": false,
      "inputs": [
        {
          "indexed": false,
          "internalType": "address",
          "name": "user",
          "type": "address"
        },
        {
          "indexed": false,
          "internalType": "uint256",
          "name": "bet",
          "type": "uint256"
        },
        {
          "indexed": false,
          "internalType": "bool",
          "name": "",
          "type": "bool"
        }
      ],
      "name": "coinFlipped",
      "type": "event"
    },
    {
      "anonymous": false,
      "inputs": [
        {
          "indexed": false,
          "internalType": "address",
          "name": "owner",
          "type": "address"
        },
        {
          "indexed": false,
          "internalType": "uint256",
          "name": "funding",
          "type": "uint256"
        }
      ],
      "name": "funded",
      "type": "event"
    },
    {
      "anonymous": false,
      "inputs": [
        {
          "indexed": false,
          "internalType": "address",
          "name": "owner",
          "type": "address"
        },
        {
          "indexed": false,
          "internalType": "uint256",
          "name": "contractBalance",
          "type": "uint256"
        }
      ],
      "name": "lowBalance",
      "type": "event"
    },
    {
      "constant": true,
      "inputs": [],
      "name": "contractBalance",
      "outputs": [
        {
          "internalType": "uint256",
          "name": "",
          "type": "uint256"
        }
      ],
      "payable": false,
      "stateMutability": "view",
      "type": "function"
    },
    {
      "constant": true,
      "inputs": [],
      "name": "owner",
      "outputs": [
        {
          "internalType": "address",
          "name": "",
          "type": "address"
        }
      ],
      "payable": false,
      "stateMutability": "view",
      "type": "function"
    },
    {
      "constant": false,
      "inputs": [
        {
          "internalType": "uint256",
          "name": "betAmt",
          "type": "uint256"
        }
      ],
      "name": "coinFlip",
      "outputs": [
        {
          "internalType": "bool",
          "name": "",
          "type": "bool"
        },
        {
          "internalType": "bool",
          "name": "",
          "type": "bool"
        }
      ],
      "payable": true,
      "stateMutability": "payable",
      "type": "function"
    },
    {
      "constant": false,
      "inputs": [],
      "name": "fundContract",
      "outputs": [
        {
          "internalType": "uint256",
          "name": "",
          "type": "uint256"
        }
      ],
      "payable": true,
      "stateMutability": "payable",
      "type": "function"
    },
    {
      "constant": true,
      "inputs": [],
      "name": "getBalance",
      "outputs": [
        {
          "internalType": "uint256",
          "name": "",
          "type": "uint256"
        },
        {
          "internalType": "uint256",
          "name": "",
          "type": "uint256"
        }
      ],
      "payable": false,
      "stateMutability": "view",
      "type": "function"
    },
    {
      "constant": false,
      "inputs": [
        {
          "internalType": "uint256",
          "name": "amt",
          "type": "uint256"
        }
      ],
      "name": "withdraw",
      "outputs": [
        {
          "internalType": "uint256",
          "name": "",
          "type": "uint256"
        },
        {
          "internalType": "bool",
          "name": "",
          "type": "bool"
        }
      ],
      "payable": false,
      "stateMutability": "nonpayable",
      "type": "function"
    },
    {
      "constant": false,
      "inputs": [],
      "name": "withdrawAll",
      "outputs": [
        {
          "internalType": "uint256",
          "name": "",
          "type": "uint256"
        },
        {
          "internalType": "bool",
          "name": "",
          "type": "bool"
        }
      ],
      "payable": false,
      "stateMutability": "nonpayable",
      "type": "function"
    }
  ],
  "bytecode": "0x608060405234801561001057600080fd5b50336000806101000a81548173ffffffffffffffffffffffffffffffffffffffff021916908373ffffffffffffffffffffffffffffffffffffffff1602179055503073ffffffffffffffffffffffffffffffffffffffff1631600181905550610b418061007e6000396000f3fe6080604052600436106100705760003560e01c8063853828b61161004e578063853828b6146101525780638b7afe2e146101885780638da5cb5b146101b3578063bd097e211461020a57610070565b806312065fe0146100755780632e1a7d4d146100a7578063402e699d14610101575b600080fd5b34801561008157600080fd5b5061008a610228565b604051808381526020018281526020019250505060405180910390f35b3480156100b357600080fd5b506100e0600480360360208110156100ca57600080fd5b8101908080359060200190929190505050610310565b60405180838152602001821515151581526020019250505060405180910390f35b61012d6004803603602081101561011757600080fd5b8101908080359060200190929190505050610528565b6040518083151515158152602001821515151581526020019250505060405180910390f35b34801561015e57600080fd5b50610167610793565b60405180838152602001821515151581526020019250505060405180910390f35b34801561019457600080fd5b5061019d6108c0565b6040518082815260200191505060405180910390f35b3480156101bf57600080fd5b506101c86108c6565b604051808273ffffffffffffffffffffffffffffffffffffffff1673ffffffffffffffffffffffffffffffffffffffff16815260200191505060405180910390f35b6102126108eb565b6040518082815260200191505060405180910390f35b6000806000809054906101000a900473ffffffffffffffffffffffffffffffffffffffff1673ffffffffffffffffffffffffffffffffffffffff163373ffffffffffffffffffffffffffffffffffffffff16146102ed576040517f08c379a000000000000000000000000000000000000000000000000000000000815260040180806020018281038252601d8152602001807f596f7520646f206e6f742068617665206163636573732072696768747300000081525060200191505060405180910390fd5b3073ffffffffffffffffffffffffffffffffffffffff1631600154915091509091565b6000806000809054906101000a900473ffffffffffffffffffffffffffffffffffffffff1673ffffffffffffffffffffffffffffffffffffffff163373ffffffffffffffffffffffffffffffffffffffff16146103d5576040517f08c379a000000000000000000000000000000000000000000000000000000000815260040180806020018281038252601d8152602001807f596f7520646f206e6f742068617665206163636573732072696768747300000081525060200191505060405180910390fd5b6000831161042e576040517f08c379a000000000000000000000000000000000000000000000000000000000815260040180806020018281038252602b815260200180610ae2602b913960400191505060405180910390fd5b6000839050836001600082825403925050819055503373ffffffffffffffffffffffffffffffffffffffff166108fc829081150290604051600060405180830381858888f19350505050158015610489573d6000803e3d6000fd5b506000670de0b6b3a7640000600154101561051457600190507f9c1ac3f19e76603e0cf7b863ea2e6b269c068108fb858b8291d41e81376b143133600154604051808373ffffffffffffffffffffffffffffffffffffffff1673ffffffffffffffffffffffffffffffffffffffff1681526020018281526020019250505060405180910390a1610519565b600090505b60015481935093505050915091565b60008060003411610584576040517f08c379a0000000000000000000000000000000000000000000000000000000008152600401808060200182810382526021815260200180610ac16021913960400191505060405180910390fd5b343073ffffffffffffffffffffffffffffffffffffffff163110156105f4576040517f08c379a0000000000000000000000000000000000000000000000000000000008152600401808060200182810382526027815260200180610a9a6027913960400191505060405180910390fd5b60008060006002428161060357fe5b06141561066d57346001600082825403925050819055503373ffffffffffffffffffffffffffffffffffffffff166108fc600287029081150290604051600060405180830381858888f19350505050158015610663573d6000803e3d6000fd5b5060019150610682565b34600160008282540192505081905550600091505b7fd6389208150097bf0cf1ab325675a453d742e9f5fff1167dc44b983fade37d05333484604051808473ffffffffffffffffffffffffffffffffffffffff1673ffffffffffffffffffffffffffffffffffffffff16815260200183815260200182151515158152602001935050505060405180910390a1670de0b6b3a7640000600154101561078157600190507f9c1ac3f19e76603e0cf7b863ea2e6b269c068108fb858b8291d41e81376b143133600154604051808373ffffffffffffffffffffffffffffffffffffffff1673ffffffffffffffffffffffffffffffffffffffff1681526020018281526020019250505060405180910390a1610786565b600090505b8181935093505050915091565b6000806000809054906101000a900473ffffffffffffffffffffffffffffffffffffffff1673ffffffffffffffffffffffffffffffffffffffff163373ffffffffffffffffffffffffffffffffffffffff1614610858576040517f08c379a000000000000000000000000000000000000000000000000000000000815260040180806020018281038252601d8152602001807f596f7520646f206e6f742068617665206163636573732072696768747300000081525060200191505060405180910390fd5b6000600154905060006001819055506000600190503373ffffffffffffffffffffffffffffffffffffffff166108fc839081150290604051600060405180830381858888f193505050501580156108b3573d6000803e3d6000fd5b5081819350935050509091565b60015481565b6000809054906101000a900473ffffffffffffffffffffffffffffffffffffffff1681565b60008060009054906101000a900473ffffffffffffffffffffffffffffffffffffffff1673ffffffffffffffffffffffffffffffffffffffff163373ffffffffffffffffffffffffffffffffffffffff16146109af576040517f08c379a000000000000000000000000000000000000000000000000000000000815260040180806020018281038252601d8152602001807f596f7520646f206e6f742068617665206163636573732072696768747300000081525060200191505060405180910390fd5b60003411610a08576040517f08c379a0000000000000000000000000000000000000000000000000000000008152600401808060200182810382526021815260200180610ac16021913960400191505060405180910390fd5b6000341415610a1657600080fd5b346001600082825401925050819055507fed7d0ddcc17abdb3935a0a23cd93e91b449dfeac7fd0def9f481ed5b37e18c4d3334604051808373ffffffffffffffffffffffffffffffffffffffff1673ffffffffffffffffffffffffffffffffffffffff1681526020018281526020019250505060405180910390a160015490509056fe54686520636f6e747261637420646f6573206e6f74206861766520656e6f7567682066756e6473416d6f756e74206d7573742062652067726561746572207468616e207a65726f215769746864726177616c20616d6f756e74206d7573742062652067726561746572207468616e207a65726fa265627a7a72315820df769d0e9ab1c5832a0d66bcc4393bd4f04c12c6ebdb63d74a8c4f6ba59e0be064736f6c634300050c0032",
  "source": "pragma solidity 0.5.12;\n\ncontract Flip {\n\n    address public owner;\n    uint public contractBalance;\n\n    constructor() public{\n        owner = msg.sender;\n        contractBalance = address(this).balance;\n    }\n\n    event coinFlipped(address user, uint bet, bool);\n    event funded(address owner, uint funding);\n    event lowBalance(address owner, uint contractBalance);\n\n    modifier nonZero(){\n        require(msg.value > 0, \"Amount must be greater than zero!\");\n        _;\n    }\n\n    modifier onlyOwner(){\n        require(msg.sender ==  owner, \"You do not have access rights\");\n        _;\n    }\n\n    // Coin flip function\n    function coinFlip(uint betAmt) public payable nonZero returns (bool, bool) {\n        require(address(this).balance >= msg.value, \"The contract does not have enough funds\");\n\n        bool betResult;\n        bool reqFund;\n\n        if(now % 2 == 0){\n            // Bet is won, send amount equal to bet to user\n            contractBalance -= msg.value;\n            msg.sender.transfer(betAmt * 2);\n            betResult = true;\n        }\n        else{\n            // Bet is lost, take bet amount away from user\n            contractBalance += msg.value;\n            betResult = false;\n        }\n        emit coinFlipped(msg.sender, msg.value, betResult);\n\n        if(contractBalance < 1 ether){\n            reqFund = true;\n            emit lowBalance(msg.sender, contractBalance);\n        }\n        else{\n            reqFund = false;\n        }\n        return (betResult, reqFund);\n    }\n\n    // Function to fund the contract\n    function fundContract() public payable onlyOwner nonZero returns(uint){\n        require(msg.value != 0);\n        contractBalance += msg.value;\n        emit funded(msg.sender, msg.value);\n        //assert(contractBalance == address(this).balance);\n        return contractBalance;\n    }\n\n    // Function to show current balance\n    function getBalance() public view onlyOwner returns(uint, uint){\n        return (address(this).balance, contractBalance);\n    }\n\n    // Function to withdraw funds from contract\n    function withdraw(uint amt) public onlyOwner returns(uint, bool) {\n        require(amt > 0, \"Withdrawal amount must be greater than zero\");\n\n        uint toTransfer = amt;\n        contractBalance -= amt;\n        msg.sender.transfer(toTransfer);\n\n        bool reqFund;\n\n        if(contractBalance < 1 ether){\n           reqFund = true;\n           emit lowBalance(msg.sender, contractBalance);\n        }\n        else{\n           reqFund = false;\n        }\n\n        return (contractBalance, reqFund);\n   }\n\n   // Function to withdraw all funds from contracts\n   function withdrawAll() public onlyOwner returns(uint, bool) {\n\n       uint toTransfer = contractBalance;\n       contractBalance = 0;\n       bool reqFund = true;\n\n       msg.sender.transfer(toTransfer);\n\n       return (toTransfer, reqFund);\n   }\n\n}\n",
  "sourcePath": "/Users/illidan7/github/Crypto/ETH Smart Contract Programming/Solidity_201/coinFlip/coinFlipDapp/contracts/coinFlip.sol",
  "compiler": {
    "name": "solc",
    "version": "0.5.12+commit.7709ece9.Emscripten.clang"
  },
  "schemaVersion": "3.0.16",
  "updatedAt": "2020-03-15T08:45:12.046Z",
  "devdoc": {
    "methods": {}
  },
  "userdoc": {
    "methods": {}
  }
}